S0160000414D49542D475241442D50524F4A2E7372656330
S11300000C942A000C9447000C9447000C9447006D
S11300100C9447000C9447000C9447000C94470040
S11300200C9447000C9447000C9447000C94470030
S11300300C9447000C9447000C9447000C94470020
S11300400C9447000C9447000C9447000C94470010
S11300500C94470011241FBECFE5D8E0DEBFCDBF0E
S113006011E0A0E6B0E0E8E0F8E102C005900D92EE
S1130070AA35B107D9F711E0AAE5B1E001C01D9294
S1130080AA35B107E1F70E9449000C94020C0C94C4
S11300900000CF93DF93CDB7DEB7C452D1400FB683
S11300A0F894DEBF0FBECDBF0E94C4048FEF82BBA5
S11300B086EB90E08C0F9D1F0796CF5DDE4F9983F2
S11300C08883C152D140A2E5B0E0AC0FBD1F1796A2
S11300D0CD5DDE4FB983A883C352D1400F2EFAE21F
S11300E02F2E3324F02D2C0E3D1EC15EDE4F2882B0
S11300F0CF51D140C05EDE4F3882C052D1401FBCC8
S11301001DBC1CBC80E288BF81E48EBD08B605FE20
S1130110FDCFC6B4D7B480E288BF81E08EBD08B6F7
S113012005FEFDCF06B517B580E288BF81E48EBD1C
S113013008B605FEFDCF86B597B520E228BF1EBCE4
S1130140C016D10608F0BCC10817190708F0B8C1D9
S11301508C199D094C01AA24BB2460E074E284EF4D
S113016090E0A50194010E945508CA01B90128EE46
S113017033E040E050E00E945508722E632E542E66
S1130180452EC65EDE4F2883CA51D140C45EDE4F81
S11301903883CC51D140C35EDE4F4883CD51D1402A
S11301A0C25EDE4F5883CE51D1400C191D09B801EF
S11301B080E090E00E943C076B017C01C501B40122
S11301C00E943C079B01AC01C701B6010E94A30633
S11301D020E030E048EC52E40E94F207062FC72EDC
S11301E0B82EA92E672D762D852D942DAE014F5F47
S11301F05F4F2AE030E00E94A308FE01EA54FF4F5B
S1130200ACE7B0E087E00D9001928150E1F78DE515
S1130210CF5DDE4FE881F981C152D14011928A95B8
S1130220E9F7FE017B96A0EEB0E085E00D90019227
S11302308150E1F7CE018A549F4FBE016F5F7F4F1B
S11302400E947708CE018A549F4FBE01655E7F4F9E
S11302500E947708802F9C2DAB2DBA2DBC01CD01B7
S11302600E940B07DC01CB01BE01615F7F4F4AE0B6
S113027050E00E948208FE01EE5AFF4FA5EEB0E066
S113028087E00D9001928150E1F78DE5CD5DDE4F61
S1130290A881B981C352D1401D928A95E9F780E2C1
S11302A095E2A0E0B0E08E8B9F8BA88FB98F1A8E59
S11302B0CE018E5A9F4FBE01615F7F4F0E94770827
S11302C0CE018E5A9F4FBE016A5E7F4F0E9477080F
S11302D0CE018A549F4F0E945C0580E20E9426054D
S11302E0CE018E5A9F4F0E945C0580E20E94260533
S11302F080E690E00E945C05C65EDE4F6881CA51CC
S1130300D140C45EDE4F7881CC51D140C35EDE4F14
S11303108881CD51D140C25EDE4F9881CE51D1400B
S11303200E943C079B01AC0160E070E080E89FE321
S11303300E94A3060E94AF0587E690E00E945C0538
S1130340FE01B09601900020E9F73197AAE6B0E0EB
S113035083E00D9001928150E1F7802F9C2DAB2D0D
S1130360BA2DBC01CD0120E030E040E251E40E940E
S1130370A306462E572E682E792EB1E0C45EDE4FBA
S1130380B883CC51D140862F952DA62DB72DBC0115
S1130390CD0120E030E0A9010E94EE0718162CF0F0
S11303A0C45EDE4F1882CC51D140C65EDE4F198246
S11303B01882CA51D1406BC0CC24DD247601F101EE
S11303C001900020E9F731978DE290E091838083DA
S11303D00894C11CD11CE11CF11CC701B6010E9488
S11303E03C07042D152D262D372DA90198010E94B7
S11303F09F06882324F360E070E080E291E4042DFA
S1130400152D262D372DA90198010E943A06862E16
S1130410972EA82EB92E862F992DAA2DBB2DBC015F
S1130420CD0120E030E0A9010E94EE071816FCF48B
S1130430CC24DD247601F10101900020E9F7319705
S1130440AFE5B0E0B183A0830894C11CD11CE11CCA
S1130450F11CC701B6010E943C07082D192D2A2D55
S11304603B2DA90198010E949F06882324F3C65EB0
S1130470DE4FE881F981CA51D1403196C65EDE4F24
S1130480F983E883CA51D140E230F10549F0C45EF2
S1130490DE4FF881CC51D140FF2309F08DCFABCF93
S11304A080EC0E948E04C15EDE4F8881CF51D14022
S11304B0C05EDE4F9881C052D1400E945C0507C0E7
S11304C081E00E948E048DE690E00E945C058AEA39
S11304D092E0A5EEBFE081509040A040B040D9F733
S11304E0000081E00E948E040ACE843008F082C0AD
S11304F0683008F07FC0423008F07CC0813031F1B0
S1130500813038F0823009F43DC0833009F072C084
S113051055C0413069F42AB381E090E0AC0102C0D7
S1130520440F551F6A95E2F7BA01622B6ABB08951E
S11305302AB381E090E0AC0102C0440F551F6A95D4
S1130540E2F7BA01609562236ABB0895413061F411
S113055047B321E030E0C90102C0880F991F6A95B2
S1130560E2F7842B87BB089527B381E090E0AC01C8
S113057002C0440F551F6A95E2F7BA0160956223E1
S113058067BB0895413061F444B321E030E0C90110
S113059002C0880F991F6A95E2F7842B84BB0895E3
S11305A024B381E090E0AC0102C0440F551F6A956A
S11305B0E2F7BA016095622364BB0895413069F49F
S11305C021B381E090E0AC0102C0440F551F6A954D
S11305D0E2F7BA01622B61BB089521B381E090E098
S11305E0AC0102C0440F551F6A95E2F7BA01609549
S11305F0622361BB0895843008F082C0683008F03B
S11306007FC0423008F07CC0813031F1813038F055
S1130610823009F43DC0833009F072C055C04130C6
S113062069F42BB381E090E0AC0102C0440F551F84
S11306306A95E2F7BA01622B6BBB08952BB381E094
S113064090E0AC0102C0440F551F6A95E2F7BA016D
S1130650609562236BBB0895413061F448B321E097
S113066030E0C90102C0880F991F6A95E2F7842B14
S113067088BB089528B381E090E0AC0102C0440F28
S1130680551F6A95E2F7BA016095622368BB089525
S1130690413061F445B321E030E0C90102C0880F64
S11306A0991F6A95E2F7842B85BB089525B381E0F1
S11306B090E0AC0102C0440F551F6A95E2F7BA01FD
S11306C06095622365BB0895413069F422B381E0EB
S11306D090E0AC0102C0440F551F6A95E2F7BA01DD
S11306E0622B62BB089522B381E090E0AC0102C0AA
S11306F0440F551F6A95E2F7BA016095622362BB05
S11307000895843008F03FC0683008F03CC0813060
S1130710A1F0813028F08230E9F08330A1F527C0C0
S11307202BB381E090E0AC0102C0440F551F6A95E1
S1130730E2F7BA0162276BBB089528B381E090E029
S1130740AC0102C0440F551F6A95E2F7BA01622753
S113075068BB089525B381E090E0AC0102C0440F6A
S1130760551F6A95E2F7BA01622765BB089522B363
S113077081E090E0AC0102C0440F551F6A95E2F796
S1130780BA01622762BB0895843008F043C0683020
S113079008F040C04115510509F43CC08130A1F076
S11307A0813028F08230E9F08330A1F527C089B385
S11307B090E09C0102C0359527956A95E2F7B9014E
S11307C06170FA016083089586B390E09C0102C0D1
S11307D0359527956A95E2F7B9016170FA0160834E
S11307E0089583B390E09C0102C0359527956A95DE
S11307F0E2F7B9016170FA016083089580B390E073
S11308009C0102C0359527956A95E2F7B90161709C
S1130810FA0160830895843008F03FC0683008F01E
S11308203CC08130A1F0813028F08230E9F083307F
S1130830A1F527C02BB381E090E0AC0102C0440FC6
S1130840551F6A95E2F7BA01622B6BBB089528B372
S113085081E090E0AC0102C0440F551F6A95E2F7B5
S1130860BA01622B68BB089525B381E090E0AC0126
S113087002C0440F551F6A95E2F7BA01622B65BBAB
S1130880089522B381E090E0AC0102C0440F551FEB
S11308906A95E2F7BA01622B62BB0895CF93C82F21
S11308A080FD06C080E064E040E00E94FB0205C0D9
S11308B080E064E041E00E94FB028C2F869580FD7D
S11308C006C080E065E040E00E94FB0205C080E0D5
S11308D065E041E00E94FB028C2F8695869580FDA1
S11308E006C080E066E040E00E94FB0205C080E0B4
S11308F066E041E00E94FB02C695C695C695C0FD20
S113090006C080E067E040E00E94FB0205C080E092
S113091067E041E00E94FB02CF910895CF93C82F76
S113092081E061E040E00E94FB0281E062E040E09F
S11309300E94FB028C2F82958F700E944E0481E0EE
S113094063E041E00E94FB028FE99FE00197F1F729
S113095000C0000081E063E040E00E94FB028C2FB5
S11309600E944E0481E063E041E00E94FB028FE9B3
S11309709FE00197F1F700C0000081E063E040E0F0
S11309800E94FB02CF91089581E061E041E00E9462
S1130990750281E062E041E00E94750281E063E05B
S11309A041E00E94750280E064E041E00E9475022B
S11309B080E065E041E00E94750280E066E041E08D
S11309C00E94750280E067E041E00E9475028FE7B3
S11309D095EBA1E081509040A040E1F700C00000F9
S11309E081E061E040E00E94FB0281E062E040E0DF
S11309F00E94FB0282E00E944E0481E063E041E039
S1130A000E94FB02AFE9BFE01197F1F700C00000BC
S1130A1081E063E040E00E94FB0288E20E948E04D1
S1130A20B0EFBA95F1F78FE00E948E0480EF8A95BB
S1130A30F1F781E00E948E04AFE3BFE11197F1F773
S1130A4000C0000086E00E948E040895CF93C82F52
S1130A5081E061E041E00E94FB0281E062E040E06D
S1130A600E94FB028C2F82958F700E944E0481E0BD
S1130A7063E041E00E94FB028FE99FE00197F1F7F8
S1130A8000C0000081E063E040E00E94FB028C2F84
S1130A900E944E0481E063E041E00E94FB028FE982
S1130AA09FE00197F1F700C0000081E063E040E0BF
S1130AB00E94FB02CF910895CF93DF93EC018881CC
S1130AC0882331F021960E94260589918823D9F73D
S1130AD0DF91CF9108950F931F93CF93DF93CDB7F9
S1130AE0DEB7A0970FB6F894DEBF0FBECDBF2DB70B
S1130AF03EB7285030400FB6F8943EBF0FBE2DBF0E
S1130B00EDB7FEB731968E010F5F1F4FADB7BEB77D
S1130B1012961C930E93119721E130E033832283C4
S1130B2029E431E035832483978386830E94D708A0
S1130B302DB73EB7285F3F4F0FB6F8943EBF0FBEA8
S1130B402DBFC8010E945C05A0960FB6F894DEBFC5
S1130B500FBECDBFDF91CF911F910F9108958F925A
S1130B609F92AF92BF92CF92DF92EF92FF920F9338
S1130B701F93CF93DF93CDB7DEB760970FB6F8948A
S1130B80DEBF0FBECDBF6B017C0120E030E0A901C8
S1130B900E949F0688235CF4F7FAF094F7F8F09427
S1130BA00F2EFCE48F2EF1E09F2EF02D06C00F2EA9
S1130BB0FEE48F2EF1E09F2EF02DC701B6010E94B6
S1130BC01007DC01CB012DB73EB72A5030400FB6D9
S1130BD0F8943EBF0FBE2DBF0DB71EB70F5F1F4F5A
S1130BE05E010894A11CB11CEDB7FEB7B282A182CC
S1130BF02FE431E0F8013383228395828482978342
S1130C008683BC0180E090E00E943C079B01AC011C
S1130C10C701B6010E943A0620E030E44CE156E4F4
S1130C200E94F2070E941007DC01CB01F8019187B2
S1130C3080870E9407092DB73EB7265F3F4F0FB646
S1130C40F8943EBF0FBE2DBFC5010E945C0560969F
S1130C500FB6F894DEBF0FBECDBFDF91CF911F91C9
S1130C600F91FF90EF90DF90CF90BF90AF909F9047
S1130C708F9008955058BB27AA270ED075C166D10E
S1130C8030F06BD120F031F49F3F11F41EF45BC1BE
S1130C900EF4E095E7FB51C1E92F77D180F3BA1741
S1130CA0620773078407950718F071F49EF58FC1E6
S1130CB00EF4E0950B2EBA2FA02D0B01B901900173
S1130CC00C01CA01A0011124FF27591B99F0593FB7
S1130CD050F4503E68F11A16F040A22F232F342FFF
S1130CE04427585FF3CF469537952795A795F0404D
S1130CF05395C9F77EF41F16BA0B620B730B840B62
S1130D00BAF09150A1F0FF0FBB1F661F771F881F19
S1130D10C2F70EC0BA0F621F731F841F48F4879571
S1130D2077956795B795F7959E3F08F0B3CF939560
S1130D30880F08F09927EE0F979587950895D9D0D5
S1130D4008F481E008950CD00FC107D140F0FED023
S1130D5030F021F45F3F19F0F0C0511139C1F3C0F4
S1130D6014D198F39923C9F35523B1F3951B550B6B
S1130D70BB27AA2762177307840738F09F5F5F4F6A
S1130D80220F331F441FAA1FA9F333D00E2E3AF0AB
S1130D90E0E830D091505040E695001CCAF729D0C5
S1130DA0FE2F27D0660F771F881FBB1F2617370714
S1130DB04807AB07B0E809F0BB0B802DBF01FF2744
S1130DC093585F4F2AF09E3F510568F0B6C000C1AA
S1130DD05F3FECF3983EDCF3869577956795B7957E
S1130DE0F7959F5FC9F7880F911D9695879597F999
S1130DF00895E1E0660F771F881FBB1F6217730712
S1130E008407BA0720F0621B730B840BBA0BEE1F26
S1130E1088F7E095089504D06894B111D9C0089575
S1130E20BCD088F09F5790F0B92F9927B751A0F004
S1130E30D1F0660F771F881F991F1AF0BA95C9F76A
S1130E4012C0B13081F0C3D0B1E00895C0C0672FA3
S1130E50782F8827B85F39F0B93FCCF3869577951A
S1130E606795B395D9F73EF4909580957095619503
S1130E707F4F8F4F9F4F0895E89409C097FB3EF42E
S1130E8090958095709561957F4F8F4F9F4F9923D3
S1130E90A9F0F92F96E9BB279395F6958795779551
S1130EA06795B795F111F8CFFAF4BB0F11F460FF11
S1130EB01BC06F5F7F4F8F4F9F4F16C0882311F069
S1130EC096E911C0772321F09EE8872F762F05C07D
S1130ED0662371F096E8862F70E060E02AF09A9518
S1130EE0660F771F881FDAF7880F9695879597F90D
S1130EF00895990F0008550FAA0BE0E8FEEF1616A7
S1130F001706E807F907C0F012161306E407F507F9
S1130F1098F0621B730B840B950B39F40A2661F06D
S1130F20232B242B252B21F408950A2609F4A14010
S1130F30A6958FEF811D811D089597F99F6780E81D
S1130F4070E060E008959FEF80EC089500240A9417
S1130F501616170618060906089500240A94121690
S1130F601306140605060895092E0394000C11F4C3
S1130F70882352F0BB0F40F4BF2B11F460FF04C070
S1130F806F5F7F4F8F4F9F4F089557FD9058440FC9
S1130F90551F59F05F3F71F04795880F97FB991FD4
S1130FA061F09F3F79F08795089512161306140691
S1130FB0551FF2CF4695F1DF08C01616170618061E
S1130FC0991FF1CF86957105610508940895E894F9
S1130FD0BB2766277727CB0197F908958ADF08F4A2
S1130FE08FEF08950BD0C0CFB1DF28F0B6DF18F033
S1130FF0952309F0A2CFA7CF1124EACFC6DFA0F32F
S1131000959FD1F3950F50E0551F629FF001729F99
S1131010BB27F00DB11D639FAA27F00DB11DAA1FB8
S1131020649F6627B00DA11D661F829F2227B00D05
S1131030A11D621F739FB00DA11D621F839FA00D90
S1131040611D221F749F3327A00D611D231F849FE0
S1131050600D211D822F762F6A2F11249F57504037
S11310608AF0E1F088234AF0EE0FFF1FBB1F661FD2
S1131070771F881F91505040A9F79E3F510570F08B
S11310805CCFA6CF5F3FECF3983EDCF38695779573
S11310906795B795F795E7959F5FC1F7FE2B880F86
S11310A0911D9695879597F90895A1E21A2EAA1B8A
S11310B0BB1BFD010DC0AA1FBB1FEE1FFF1FA21704
S11310C0B307E407F50720F0A21BB30BE40BF50B01
S11310D0661F771F881F991F1A9469F7609570958A
S11310E0809590959B01AC01BD01CF010895FB0152
S11310F0DC010D900020E9F7119701900D9200207A
S1131100E1F70895FB019F01E8944230C4F04532B1
S1131110B4F44A3029F497FB1EF4909581959F4FBF
S1131120642F77270E94B70B805D8A330CF0895DAA
S11311308193CB010097A1F716F45DE251931082DD
S1131140C9010C941D0BFA01CF93FF93EF93223046
S113115044F1253234F5C22FE894CA3049F497FBA0
S11311603EF490958095709561957F4F8F4F9F4F7A
S11311702C2F332744275527FF93EF930E945508BC
S1131180EF91FF91605D6A330CF0695D6193B90181
S1131190CA01605070408040904051F716F4CDE28F
S11311A0C19310828F919F91CF910C941D0BAEE04F
S11311B0B0E0EDEDF8E00C94D90B0D891E898F8910
S11311C0988D26E02C831A83098397FF02C080E060
S11311D090E801979E838D83AE01455E5F4FCE01FB
S11311E00196698D7A8D0E9429094D815E8157FD92
S11311F00AC02F813885421753070CF49A01020F55
S1131200131FF80110822E96E4E00C94F50BAEE067
S1131210B0E0EDE0F9E00C94D90B0D891E8986E06D
S11312208C831A8309838FEF9FE79E838D83AE019E
S1131230475E5F4FCE0101966F89788D0E94290920
S1131240EF81F885E00FF11F10822E96E4E00C94F4
S1131250F50BADE0B0E0EFE2F9E00C94CB0B3C0110
S11312607D876C875A01FC0117821682838181FF76
S1131270C8C12E010894411C511CF3019381EC85D3
S1131280FD8593FD859193FF8191FD87EC878823EC
S113129009F4B3C1853241F493FD859193FF8191A3
S11312A0FD87EC87853229F490E0B3010E942D0B71
S11312B0E4CFFF24EE2410E01032B0F48B3269F056
S11312C08C3228F4803251F0833271F40BC08D32A9
S11312D039F0803349F411602CC01260146029C0C5
S11312E0186027C0106125C017FD2EC0282F205379
S11312F02A3098F416FF08C08F2D880FF82EFF0CA3
S1131300FF0CF80EF20E15C08E2D880FE82EEE0C91
S1131310EE0CE80EE20E10620CC08E3221F416FDC3
S11313206CC1106406C08C3611F4106802C0883693
S113133059F4EC85FD8593FD859193FF8191FD879B
S1131340EC87882309F0B8CF982F9554933018F080
S11313509052933038F424E030E0A20EB31E3FE301
S113136039830FC0833631F0833781F0833509F038
S11313705AC022C0F5018081898322E030E0A20EA8
S1131380B31E21E0C22ED12C420114C092E0292EBA
S1131390312C2A0C3B1CF5018080918016FF03C080
S11313A06F2D70E002C06FEF7FEFC4010E94120B3B
S11313B06C0151011F7715C082E0282E312C2A0CB4
S11313C03B1CF5018080918016FF03C06F2D70E0F7
S11313D002C06FEF7FEFC4010E94070B6C0110681D
S11313E0510113FD1CC006C080E290E0B3010E94CD
S11313F02D0BEA948E2D90E0C816D906A8F30FC0E1
S1131400F40117FD859117FF81914F0190E0B3011D
S11314100E942D0BE110EA940894C108D108C1146C
S1131420D10471F7E7C0843611F0893651F5F5011E
S113143017FF07C080819181A281B38124E030E04D
S113144008C080819181AA2797FDA095BA2F22E038
S113145030E0A20EB31E012F0F76B7FF08C0B0957F
S1131460A095909581959F4FAF4FBF4F0068BC01E9
S1131470CD01A2012AE030E00E94590BD82ED418E5
S11314803FC0853721F41F7E2AE030E020C0197F59
S11314908F36A9F0803720F4883509F0AEC00BC030
S11314A0803721F0883709F0A8C001C0106114FF0B
S11314B009C0146007C014FF08C0166006C028E005
S11314C030E005C020E130E002C020E132E0F50167
S11314D017FF07C0608171818281938144E050E0ED
S11314E006C06081718180E090E042E050E0A40E8B
S11314F0B51EA2010E94590BD82ED418012F0F77C4
S113150006FF09C00E7FDF1430F404FF06C002FD9D
S113151004C00F7E02C01D2D01C01F2D802F90E03E
S113152004FF0CC0FE01ED0DF11D2081203311F4E8
S1131530097E09C002FF06C01E5F05C08678907050
S1131540009709F01F5F802E992403FD12C000FF4D
S11315500DC0FD2C1E1550F4FE0CF11A1E2D06C0F4
S113156080E290E0B3010E942D0B1F5F1E15C0F3B3
S113157004C01E1510F4E11A01C0EE2484FE0FC04D
S113158080E390E0B3010E942D0B82FE1FC081FE18
S113159003C088E590E010C088E790E00DC0C40166
S11315A086789070009791F081FC02C080E201C0BF
S11315B08BE207FD8DE290E0B3010E942D0B06C083
S11315C080E390E0B3010E942D0BFA94DF14C0F382
S11315D0DA94F201ED0DF11D808190E0B3010E94D7
S11315E02D0BDD20A9F706C080E290E0B3010E9434
S11315F02D0BEA94EE20C1F740CEF301868197814A
S113160002C08FEF9FEF2D96E2E10C94E70BFC01F3
S11316100590615070400110D8F7809590958E0F19
S11316209F1F0895FC016150704001900110D8F78C
S1131630809590958E0F9F1F0895DC01FC01672F04
S113164071917723E1F7329704C07C916D93708395
S11316506291AE17BF07C8F308950F931F93CF93FA
S1131660DF938C01EB018B8181FF1BC082FF0DC0D6
S11316702E813F818C819D812817390764F4E8818C
S1131680F9810193F983E88306C0E885F985802F01
S11316900995009731F48E819F8101969F838E83F3
S11316A002C00FEF1FEFC801DF91CF911F910F917F
S11316B00895FA01AA27283051F1203181F1E894E4
S11316C06F936E7F6E5F7F4F8F4F9F4FAF4FB1E031
S11316D03ED0B4E03CD0670F781F891F9A1FA11D2C
S11316E0680F791F8A1F911DA11D6A0F711D811D2D
S11316F0911DA11D20D009F468943F912AE0269FF2
S113170011243019305D3193DEF6CF010895462F50
S11317104770405D4193B3E00FD0C9F7F6CF462F31
S11317204F70405D4A3318F0495D31FD405241939A
S113173002D0A9F7EACFB4E0A69597958795779557
S11317406795BA95C9F700976105710508959B01DE
S1131750AC010A2E06945795479537952795BA9567
S1131760C9F7620F731F841F951FA01D0895AA1B3C
S1131770BB1B51E107C0AA1FBB1FA617B70710F078
S1131780A61BB70B881F991F5A95A9F780959095AA
S1131790BC01CD0108952F923F924F925F926F92B8
S11317A07F928F929F92AF92BF92CF92DF92EF92ED
S11317B0FF920F931F93CF93DF93CDB7DEB7CA1B6E
S11317C0DB0B0FB6F894DEBF0FBECDBF09942A8899
S11317D0398848885F846E847D848C849B84AA8441
S11317E0B984C884DF80EE80FD800C811B81AA81CE
S11317F0B981CE0FD11D0FB6F894DEBF0FBECDBF99
S10B1800ED010895F894FFCFF7
S113180854696D653A20006D73003C2D004F5554A2
S1131818204F462052414E474521210046726571AA
S11318283A20000000000000000000000000000052
S1131838000000000000000000000000000000009C
S1131848000000000000000000000000000000008C
S1131858000000000000000000000000000000007C
S1131868000000000000000000000000000000006C
S1131878000000000000000000000000000000005C
S1131888204B485A00447574793A2000000000003F
S1131898000000000000000000000000000000003C
S11318A8000000000000000000000000000000002C
S11318B8000000000000000000000000000000001C
S11318C8000000000000000000000000000000000C
S11318D800000000000000000000000000000000FC
S11318E80000000000000000002564002D00002511
S10D18F87325642E253034640000CB
S9030000FC
